{
  "_format": "hh-sol-artifact-1",
  "contractName": "SkillToEarnPool",
  "sourceName": "contracts/SkillToEarnPool.sol",
  "abi": [
    {
      "inputs": [
        {
          "internalType": "address",
          "name": "tokenAddress",
          "type": "address"
        }
      ],
      "stateMutability": "nonpayable",
      "type": "constructor"
    },
    {
      "anonymous": false,
      "inputs": [
        {
          "indexed": true,
          "internalType": "address",
          "name": "previousOwner",
          "type": "address"
        },
        {
          "indexed": true,
          "internalType": "address",
          "name": "newOwner",
          "type": "address"
        }
      ],
      "name": "OwnershipTransferred",
      "type": "event"
    },
    {
      "anonymous": false,
      "inputs": [
        {
          "indexed": true,
          "internalType": "address",
          "name": "from",
          "type": "address"
        },
        {
          "indexed": false,
          "internalType": "uint256",
          "name": "amount",
          "type": "uint256"
        }
      ],
      "name": "PoolFunded",
      "type": "event"
    },
    {
      "anonymous": false,
      "inputs": [
        {
          "indexed": true,
          "internalType": "address",
          "name": "to",
          "type": "address"
        },
        {
          "indexed": false,
          "internalType": "uint256",
          "name": "amount",
          "type": "uint256"
        }
      ],
      "name": "RewardPaid",
      "type": "event"
    },
    {
      "inputs": [
        {
          "internalType": "uint256",
          "name": "amount",
          "type": "uint256"
        }
      ],
      "name": "fundPool",
      "outputs": [],
      "stateMutability": "nonpayable",
      "type": "function"
    },
    {
      "inputs": [],
      "name": "owner",
      "outputs": [
        {
          "internalType": "address",
          "name": "",
          "type": "address"
        }
      ],
      "stateMutability": "view",
      "type": "function"
    },
    {
      "inputs": [
        {
          "internalType": "address",
          "name": "to",
          "type": "address"
        },
        {
          "internalType": "uint256",
          "name": "amount",
          "type": "uint256"
        }
      ],
      "name": "payReward",
      "outputs": [],
      "stateMutability": "nonpayable",
      "type": "function"
    },
    {
      "inputs": [],
      "name": "renounceOwnership",
      "outputs": [],
      "stateMutability": "nonpayable",
      "type": "function"
    },
    {
      "inputs": [],
      "name": "token",
      "outputs": [
        {
          "internalType": "contract IERC20",
          "name": "",
          "type": "address"
        }
      ],
      "stateMutability": "view",
      "type": "function"
    },
    {
      "inputs": [
        {
          "internalType": "address",
          "name": "newOwner",
          "type": "address"
        }
      ],
      "name": "transferOwnership",
      "outputs": [],
      "stateMutability": "nonpayable",
      "type": "function"
    },
    {
      "inputs": [
        {
          "internalType": "address",
          "name": "to",
          "type": "address"
        },
        {
          "internalType": "uint256",
          "name": "amount",
          "type": "uint256"
        }
      ],
      "name": "withdraw",
      "outputs": [],
      "stateMutability": "nonpayable",
      "type": "function"
    }
  ],
  "bytecode": "0x60806040523480156200001157600080fd5b5060405162000f8838038062000f88833981810160405281019062000037919062000247565b620000576200004b6200011160201b60201c565b6200011960201b60201c565b600073ffffffffffffffffffffffffffffffffffffffff168173ffffffffffffffffffffffffffffffffffffffff1603620000c9576040517f08c379a0000000000000000000000000000000000000000000000000000000008152600401620000c090620002da565b60405180910390fd5b80600160006101000a81548173ffffffffffffffffffffffffffffffffffffffff021916908373ffffffffffffffffffffffffffffffffffffffff16021790555050620002fc565b600033905090565b60008060009054906101000a900473ffffffffffffffffffffffffffffffffffffffff169050816000806101000a81548173ffffffffffffffffffffffffffffffffffffffff021916908373ffffffffffffffffffffffffffffffffffffffff1602179055508173ffffffffffffffffffffffffffffffffffffffff168173ffffffffffffffffffffffffffffffffffffffff167f8be0079c531659141344cd1fd0a4f28419497f9722a3daafe3b4186f6b6457e060405160405180910390a35050565b600080fd5b600073ffffffffffffffffffffffffffffffffffffffff82169050919050565b60006200020f82620001e2565b9050919050565b620002218162000202565b81146200022d57600080fd5b50565b600081519050620002418162000216565b92915050565b60006020828403121562000260576200025f620001dd565b5b6000620002708482850162000230565b91505092915050565b600082825260208201905092915050565b7f746f6b656e416464726573733d3d300000000000000000000000000000000000600082015250565b6000620002c2600f8362000279565b9150620002cf826200028a565b602082019050919050565b60006020820190508181036000830152620002f581620002b3565b9050919050565b610c7c806200030c6000396000f3fe608060405234801561001057600080fd5b506004361061007d5760003560e01c8063da3a5f721161005b578063da3a5f72146100c6578063f2fde38b146100e2578063f3fef3a3146100fe578063fc0c546a1461011a5761007d565b8063715018a6146100825780638b8afcd71461008c5780638da5cb5b146100a8575b600080fd5b61008a610138565b005b6100a660048036038101906100a19190610832565b61014c565b005b6100b06102ce565b6040516100bd9190610881565b60405180910390f35b6100e060048036038101906100db919061089c565b6102f7565b005b6100fc60048036038101906100f791906108c9565b610472565b005b61011860048036038101906101139190610832565b6104f5565b005b610122610629565b60405161012f9190610955565b60405180910390f35b61014061064f565b61014a60006106cd565b565b61015461064f565b60008111610197576040517f08c379a000000000000000000000000000000000000000000000000000000000815260040161018e906109cd565b60405180910390fd5b6000600160009054906101000a900473ffffffffffffffffffffffffffffffffffffffff1673ffffffffffffffffffffffffffffffffffffffff1663a9059cbb84846040518363ffffffff1660e01b81526004016101f69291906109fc565b6020604051808303816000875af1158015610215573d6000803e3d6000fd5b505050506040513d601f19601f820116820180604052508101906102399190610a5d565b90508061027b576040517f08c379a000000000000000000000000000000000000000000000000000000000815260040161027290610ad6565b60405180910390fd5b8273ffffffffffffffffffffffffffffffffffffffff167fe2403640ba68fed3a2f88b7557551d1993f84b99bb10ff833f0cf8db0c5e0486836040516102c19190610af6565b60405180910390a2505050565b60008060009054906101000a900473ffffffffffffffffffffffffffffffffffffffff16905090565b6000811161033a576040517f08c379a0000000000000000000000000000000000000000000000000000000008152600401610331906109cd565b60405180910390fd5b6000600160009054906101000a900473ffffffffffffffffffffffffffffffffffffffff1673ffffffffffffffffffffffffffffffffffffffff166323b872dd3330856040518463ffffffff1660e01b815260040161039b93929190610b11565b6020604051808303816000875af11580156103ba573d6000803e3d6000fd5b505050506040513d601f19601f820116820180604052508101906103de9190610a5d565b905080610420576040517f08c379a000000000000000000000000000000000000000000000000000000000815260040161041790610ad6565b60405180910390fd5b3373ffffffffffffffffffffffffffffffffffffffff167f32173d8e51cec3a6fe484b7a1c3febe760cdf96e03d4cca36a43563a4333e838836040516104669190610af6565b60405180910390a25050565b61047a61064f565b600073ffffffffffffffffffffffffffffffffffffffff168173ffffffffffffffffffffffffffffffffffffffff16036104e9576040517f08c379a00000000000000000000000000000000000000000000000000000000081526004016104e090610bba565b60405180910390fd5b6104f2816106cd565b50565b6104fd61064f565b60008111610540576040517f08c379a0000000000000000000000000000000000000000000000000000000008152600401610537906109cd565b60405180910390fd5b6000600160009054906101000a900473ffffffffffffffffffffffffffffffffffffffff1673ffffffffffffffffffffffffffffffffffffffff1663a9059cbb84846040518363ffffffff1660e01b815260040161059f9291906109fc565b6020604051808303816000875af11580156105be573d6000803e3d6000fd5b505050506040513d601f19601f820116820180604052508101906105e29190610a5d565b905080610624576040517f08c379a000000000000000000000000000000000000000000000000000000000815260040161061b90610ad6565b60405180910390fd5b505050565b600160009054906101000a900473ffffffffffffffffffffffffffffffffffffffff1681565b610657610791565b73ffffffffffffffffffffffffffffffffffffffff166106756102ce565b73ffffffffffffffffffffffffffffffffffffffff16146106cb576040517f08c379a00000000000000000000000000000000000000000000000000000000081526004016106c290610c26565b60405180910390fd5b565b60008060009054906101000a900473ffffffffffffffffffffffffffffffffffffffff169050816000806101000a81548173ffffffffffffffffffffffffffffffffffffffff021916908373ffffffffffffffffffffffffffffffffffffffff1602179055508173ffffffffffffffffffffffffffffffffffffffff168173ffffffffffffffffffffffffffffffffffffffff167f8be0079c531659141344cd1fd0a4f28419497f9722a3daafe3b4186f6b6457e060405160405180910390a35050565b600033905090565b600080fd5b600073ffffffffffffffffffffffffffffffffffffffff82169050919050565b60006107c98261079e565b9050919050565b6107d9816107be565b81146107e457600080fd5b50565b6000813590506107f6816107d0565b92915050565b6000819050919050565b61080f816107fc565b811461081a57600080fd5b50565b60008135905061082c81610806565b92915050565b6000806040838503121561084957610848610799565b5b6000610857858286016107e7565b92505060206108688582860161081d565b9150509250929050565b61087b816107be565b82525050565b60006020820190506108966000830184610872565b92915050565b6000602082840312156108b2576108b1610799565b5b60006108c08482850161081d565b91505092915050565b6000602082840312156108df576108de610799565b5b60006108ed848285016107e7565b91505092915050565b6000819050919050565b600061091b6109166109118461079e565b6108f6565b61079e565b9050919050565b600061092d82610900565b9050919050565b600061093f82610922565b9050919050565b61094f81610934565b82525050565b600060208201905061096a6000830184610946565b92915050565b600082825260208201905092915050565b7f616d6f756e743e30000000000000000000000000000000000000000000000000600082015250565b60006109b7600883610970565b91506109c282610981565b602082019050919050565b600060208201905081810360008301526109e6816109aa565b9050919050565b6109f6816107fc565b82525050565b6000604082019050610a116000830185610872565b610a1e60208301846109ed565b9392505050565b60008115159050919050565b610a3a81610a25565b8114610a4557600080fd5b50565b600081519050610a5781610a31565b92915050565b600060208284031215610a7357610a72610799565b5b6000610a8184828501610a48565b91505092915050565b7f7472616e73666572206661696c65640000000000000000000000000000000000600082015250565b6000610ac0600f83610970565b9150610acb82610a8a565b602082019050919050565b60006020820190508181036000830152610aef81610ab3565b9050919050565b6000602082019050610b0b60008301846109ed565b92915050565b6000606082019050610b266000830186610872565b610b336020830185610872565b610b4060408301846109ed565b949350505050565b7f4f776e61626c653a206e6577206f776e657220697320746865207a65726f206160008201527f6464726573730000000000000000000000000000000000000000000000000000602082015250565b6000610ba4602683610970565b9150610baf82610b48565b604082019050919050565b60006020820190508181036000830152610bd381610b97565b9050919050565b7f4f776e61626c653a2063616c6c6572206973206e6f7420746865206f776e6572600082015250565b6000610c10602083610970565b9150610c1b82610bda565b602082019050919050565b60006020820190508181036000830152610c3f81610c03565b905091905056fea2646970667358221220fbd6982cde9d8619206519f5dff26a85c15c1dc5fbf77ae66be999a37c2d5b4d64736f6c63430008130033",
  "linkReferences": {},
  "deployedLinkReferences": {}
}