{
  "_format": "hh-sol-artifact-1",
  "contractName": "CertificateNFT",
  "sourceName": "contracts/CertificateNFT.sol",
  "abi": [
    {
      "inputs": [],
      "stateMutability": "nonpayable",
      "type": "constructor"
    },
    {
      "anonymous": false,
      "inputs": [
        {
          "indexed": true,
          "internalType": "address",
          "name": "owner",
          "type": "address"
        },
        {
          "indexed": true,
          "internalType": "address",
          "name": "approved",
          "type": "address"
        },
        {
          "indexed": true,
          "internalType": "uint256",
          "name": "tokenId",
          "type": "uint256"
        }
      ],
      "name": "Approval",
      "type": "event"
    },
    {
      "anonymous": false,
      "inputs": [
        {
          "indexed": true,
          "internalType": "address",
          "name": "owner",
          "type": "address"
        },
        {
          "indexed": true,
          "internalType": "address",
          "name": "operator",
          "type": "address"
        },
        {
          "indexed": false,
          "internalType": "bool",
          "name": "approved",
          "type": "bool"
        }
      ],
      "name": "ApprovalForAll",
      "type": "event"
    },
    {
      "anonymous": false,
      "inputs": [
        {
          "indexed": false,
          "internalType": "uint256",
          "name": "_fromTokenId",
          "type": "uint256"
        },
        {
          "indexed": false,
          "internalType": "uint256",
          "name": "_toTokenId",
          "type": "uint256"
        }
      ],
      "name": "BatchMetadataUpdate",
      "type": "event"
    },
    {
      "anonymous": false,
      "inputs": [
        {
          "indexed": false,
          "internalType": "uint256",
          "name": "_tokenId",
          "type": "uint256"
        }
      ],
      "name": "MetadataUpdate",
      "type": "event"
    },
    {
      "anonymous": false,
      "inputs": [
        {
          "indexed": true,
          "internalType": "address",
          "name": "previousOwner",
          "type": "address"
        },
        {
          "indexed": true,
          "internalType": "address",
          "name": "newOwner",
          "type": "address"
        }
      ],
      "name": "OwnershipTransferred",
      "type": "event"
    },
    {
      "anonymous": false,
      "inputs": [
        {
          "indexed": true,
          "internalType": "address",
          "name": "from",
          "type": "address"
        },
        {
          "indexed": true,
          "internalType": "address",
          "name": "to",
          "type": "address"
        },
        {
          "indexed": true,
          "internalType": "uint256",
          "name": "tokenId",
          "type": "uint256"
        }
      ],
      "name": "Transfer",
      "type": "event"
    },
    {
      "inputs": [
        {
          "internalType": "address",
          "name": "to",
          "type": "address"
        },
        {
          "internalType": "uint256",
          "name": "tokenId",
          "type": "uint256"
        }
      ],
      "name": "approve",
      "outputs": [],
      "stateMutability": "nonpayable",
      "type": "function"
    },
    {
      "inputs": [
        {
          "internalType": "address",
          "name": "owner",
          "type": "address"
        }
      ],
      "name": "balanceOf",
      "outputs": [
        {
          "internalType": "uint256",
          "name": "",
          "type": "uint256"
        }
      ],
      "stateMutability": "view",
      "type": "function"
    },
    {
      "inputs": [
        {
          "internalType": "uint256",
          "name": "tokenId",
          "type": "uint256"
        }
      ],
      "name": "getApproved",
      "outputs": [
        {
          "internalType": "address",
          "name": "",
          "type": "address"
        }
      ],
      "stateMutability": "view",
      "type": "function"
    },
    {
      "inputs": [
        {
          "internalType": "address",
          "name": "owner",
          "type": "address"
        },
        {
          "internalType": "address",
          "name": "operator",
          "type": "address"
        }
      ],
      "name": "isApprovedForAll",
      "outputs": [
        {
          "internalType": "bool",
          "name": "",
          "type": "bool"
        }
      ],
      "stateMutability": "view",
      "type": "function"
    },
    {
      "inputs": [
        {
          "internalType": "address",
          "name": "to",
          "type": "address"
        },
        {
          "internalType": "string",
          "name": "tokenURI",
          "type": "string"
        }
      ],
      "name": "mint",
      "outputs": [
        {
          "internalType": "uint256",
          "name": "",
          "type": "uint256"
        }
      ],
      "stateMutability": "nonpayable",
      "type": "function"
    },
    {
      "inputs": [],
      "name": "name",
      "outputs": [
        {
          "internalType": "string",
          "name": "",
          "type": "string"
        }
      ],
      "stateMutability": "view",
      "type": "function"
    },
    {
      "inputs": [],
      "name": "owner",
      "outputs": [
        {
          "internalType": "address",
          "name": "",
          "type": "address"
        }
      ],
      "stateMutability": "view",
      "type": "function"
    },
    {
      "inputs": [
        {
          "internalType": "uint256",
          "name": "tokenId",
          "type": "uint256"
        }
      ],
      "name": "ownerOf",
      "outputs": [
        {
          "internalType": "address",
          "name": "",
          "type": "address"
        }
      ],
      "stateMutability": "view",
      "type": "function"
    },
    {
      "inputs": [],
      "name": "renounceOwnership",
      "outputs": [],
      "stateMutability": "nonpayable",
      "type": "function"
    },
    {
      "inputs": [
        {
          "internalType": "address",
          "name": "from",
          "type": "address"
        },
        {
          "internalType": "address",
          "name": "to",
          "type": "address"
        },
        {
          "internalType": "uint256",
          "name": "tokenId",
          "type": "uint256"
        }
      ],
      "name": "safeTransferFrom",
      "outputs": [],
      "stateMutability": "nonpayable",
      "type": "function"
    },
    {
      "inputs": [
        {
          "internalType": "address",
          "name": "from",
          "type": "address"
        },
        {
          "internalType": "address",
          "name": "to",
          "type": "address"
        },
        {
          "internalType": "uint256",
          "name": "tokenId",
          "type": "uint256"
        },
        {
          "internalType": "bytes",
          "name": "data",
          "type": "bytes"
        }
      ],
      "name": "safeTransferFrom",
      "outputs": [],
      "stateMutability": "nonpayable",
      "type": "function"
    },
    {
      "inputs": [
        {
          "internalType": "address",
          "name": "operator",
          "type": "address"
        },
        {
          "internalType": "bool",
          "name": "approved",
          "type": "bool"
        }
      ],
      "name": "setApprovalForAll",
      "outputs": [],
      "stateMutability": "nonpayable",
      "type": "function"
    },
    {
      "inputs": [
        {
          "internalType": "bytes4",
          "name": "interfaceId",
          "type": "bytes4"
        }
      ],
      "name": "supportsInterface",
      "outputs": [
        {
          "internalType": "bool",
          "name": "",
          "type": "bool"
        }
      ],
      "stateMutability": "view",
      "type": "function"
    },
    {
      "inputs": [],
      "name": "symbol",
      "outputs": [
        {
          "internalType": "string",
          "name": "",
          "type": "string"
        }
      ],
      "stateMutability": "view",
      "type": "function"
    },
    {
      "inputs": [],
      "name": "tokenCounter",
      "outputs": [
        {
          "internalType": "uint256",
          "name": "",
          "type": "uint256"
        }
      ],
      "stateMutability": "view",
      "type": "function"
    },
    {
      "inputs": [
        {
          "internalType": "uint256",
          "name": "tokenId",
          "type": "uint256"
        }
      ],
      "name": "tokenURI",
      "outputs": [
        {
          "internalType": "string",
          "name": "",
          "type": "string"
        }
      ],
      "stateMutability": "view",
      "type": "function"
    },
    {
      "inputs": [
        {
          "internalType": "address",
          "name": "from",
          "type": "address"
        },
        {
          "internalType": "address",
          "name": "to",
          "type": "address"
        },
        {
          "internalType": "uint256",
          "name": "tokenId",
          "type": "uint256"
        }
      ],
      "name": "transferFrom",
      "outputs": [],
      "stateMutability": "nonpayable",
      "type": "function"
    },
    {
      "inputs": [
        {
          "internalType": "address",
          "name": "newOwner",
          "type": "address"
        }
      ],
      "name": "transferOwnership",
      "outputs": [],
      "stateMutability": "nonpayable",
      "type": "function"
    }
  ],
  "bytecode": "0x60806040523480156200001157600080fd5b506040518060400160405280600e81526020017f43657274696669636174654e46540000000000000000000000000000000000008152506040518060400160405280600481526020017f434e46540000000000000000000000000000000000000000000000000000000081525081600090816200008f91906200041a565b508060019081620000a191906200041a565b505050620000c4620000b8620000d260201b60201c565b620000da60201b60201c565b600060088190555062000501565b600033905090565b6000600760009054906101000a900473ffffffffffffffffffffffffffffffffffffffff16905081600760006101000a81548173ffffffffffffffffffffffffffffffffffffffff021916908373ffffffffffffffffffffffffffffffffffffffff1602179055508173ffffffffffffffffffffffffffffffffffffffff168173ffffffffffffffffffffffffffffffffffffffff167f8be0079c531659141344cd1fd0a4f28419497f9722a3daafe3b4186f6b6457e060405160405180910390a35050565b600081519050919050565b7f4e487b7100000000000000000000000000000000000000000000000000000000600052604160045260246000fd5b7f4e487b7100000000000000000000000000000000000000000000000000000000600052602260045260246000fd5b600060028204905060018216806200022257607f821691505b602082108103620002385762000237620001da565b5b50919050565b60008190508160005260206000209050919050565b60006020601f8301049050919050565b600082821b905092915050565b600060088302620002a27fffffffffffffffffffffffffffffffffffffffffffffffffffffffffffffffff8262000263565b620002ae868362000263565b95508019841693508086168417925050509392505050565b6000819050919050565b6000819050919050565b6000620002fb620002f5620002ef84620002c6565b620002d0565b620002c6565b9050919050565b6000819050919050565b6200031783620002da565b6200032f620003268262000302565b84845462000270565b825550505050565b600090565b6200034662000337565b620003538184846200030c565b505050565b5b818110156200037b576200036f6000826200033c565b60018101905062000359565b5050565b601f821115620003ca5762000394816200023e565b6200039f8462000253565b81016020851015620003af578190505b620003c7620003be8562000253565b83018262000358565b50505b505050565b600082821c905092915050565b6000620003ef60001984600802620003cf565b1980831691505092915050565b60006200040a8383620003dc565b9150826002028217905092915050565b6200042582620001a0565b67ffffffffffffffff811115620004415762000440620001ab565b5b6200044d825462000209565b6200045a8282856200037f565b600060209050601f8311600181146200049257600084156200047d578287015190505b620004898582620003fc565b865550620004f9565b601f198416620004a2866200023e565b60005b82811015620004cc57848901518255600182019150602085019450602081019050620004a5565b86831015620004ec5784890151620004e8601f891682620003dc565b8355505b6001600288020188555050505b505050505050565b612f5280620005116000396000f3fe608060405234801561001057600080fd5b50600436106101165760003560e01c80638da5cb5b116100a2578063c87b56dd11610071578063c87b56dd146102cb578063d082e381146102fb578063d0def52114610319578063e985e9c514610349578063f2fde38b1461037957610116565b80638da5cb5b1461025757806395d89b4114610275578063a22cb46514610293578063b88d4fde146102af57610116565b806323b872dd116100e957806323b872dd146101b557806342842e0e146101d15780636352211e146101ed57806370a082311461021d578063715018a61461024d57610116565b806301ffc9a71461011b57806306fdde031461014b578063081812fc14610169578063095ea7b314610199575b600080fd5b61013560048036038101906101309190611ccc565b610395565b6040516101429190611d14565b60405180910390f35b6101536103f6565b6040516101609190611dbf565b60405180910390f35b610183600480360381019061017e9190611e17565b610488565b6040516101909190611e85565b60405180910390f35b6101b360048036038101906101ae9190611ecc565b6104ce565b005b6101cf60048036038101906101ca9190611f0c565b6105e5565b005b6101eb60048036038101906101e69190611f0c565b610645565b005b61020760048036038101906102029190611e17565b610665565b6040516102149190611e85565b60405180910390f35b61023760048036038101906102329190611f5f565b6106eb565b6040516102449190611f9b565b60405180910390f35b6102556107a2565b005b61025f6107b6565b60405161026c9190611e85565b60405180910390f35b61027d6107e0565b60405161028a9190611dbf565b60405180910390f35b6102ad60048036038101906102a89190611fe2565b610872565b005b6102c960048036038101906102c49190612157565b610888565b005b6102e560048036038101906102e09190611e17565b6108ea565b6040516102f29190611dbf565b60405180910390f35b6103036109fc565b6040516103109190611f9b565b60405180910390f35b610333600480360381019061032e919061227b565b610a02565b6040516103409190611f9b565b60405180910390f35b610363600480360381019061035e91906122d7565b610a49565b6040516103709190611d14565b60405180910390f35b610393600480360381019061038e9190611f5f565b610add565b005b6000634906490660e01b7bffffffffffffffffffffffffffffffffffffffffffffffffffffffff1916827bffffffffffffffffffffffffffffffffffffffffffffffffffffffff191614806103ef57506103ee82610b60565b5b9050919050565b60606000805461040590612346565b80601f016020809104026020016040519081016040528092919081815260200182805461043190612346565b801561047e5780601f106104535761010080835404028352916020019161047e565b820191906000526020600020905b81548152906001019060200180831161046157829003601f168201915b5050505050905090565b600061049382610c42565b6004600083815260200190815260200160002060009054906101000a900473ffffffffffffffffffffffffffffffffffffffff169050919050565b60006104d982610665565b90508073ffffffffffffffffffffffffffffffffffffffff168373ffffffffffffffffffffffffffffffffffffffff1603610549576040517f08c379a0000000000000000000000000000000000000000000000000000000008152600401610540906123e9565b60405180910390fd5b8073ffffffffffffffffffffffffffffffffffffffff16610568610c8d565b73ffffffffffffffffffffffffffffffffffffffff161480610597575061059681610591610c8d565b610a49565b5b6105d6576040517f08c379a00000000000000000000000000000000000000000000000000000000081526004016105cd9061247b565b60405180910390fd5b6105e08383610c95565b505050565b6105f66105f0610c8d565b82610d4e565b610635576040517f08c379a000000000000000000000000000000000000000000000000000000000815260040161062c9061250d565b60405180910390fd5b610640838383610de3565b505050565b61066083838360405180602001604052806000815250610888565b505050565b600080610671836110dc565b9050600073ffffffffffffffffffffffffffffffffffffffff168173ffffffffffffffffffffffffffffffffffffffff16036106e2576040517f08c379a00000000000000000000000000000000000000000000000000000000081526004016106d990612579565b60405180910390fd5b80915050919050565b60008073ffffffffffffffffffffffffffffffffffffffff168273ffffffffffffffffffffffffffffffffffffffff160361075b576040517f08c379a00000000000000000000000000000000000000000000000000000000081526004016107529061260b565b60405180910390fd5b600360008373ffffffffffffffffffffffffffffffffffffffff1673ffffffffffffffffffffffffffffffffffffffff168152602001908152602001600020549050919050565b6107aa611119565b6107b46000611197565b565b6000600760009054906101000a900473ffffffffffffffffffffffffffffffffffffffff16905090565b6060600180546107ef90612346565b80601f016020809104026020016040519081016040528092919081815260200182805461081b90612346565b80156108685780601f1061083d57610100808354040283529160200191610868565b820191906000526020600020905b81548152906001019060200180831161084b57829003601f168201915b5050505050905090565b61088461087d610c8d565b838361125d565b5050565b610899610893610c8d565b83610d4e565b6108d8576040517f08c379a00000000000000000000000000000000000000000000000000000000081526004016108cf9061250d565b60405180910390fd5b6108e4848484846113c9565b50505050565b60606108f582610c42565b600060066000848152602001908152602001600020805461091590612346565b80601f016020809104026020016040519081016040528092919081815260200182805461094190612346565b801561098e5780601f106109635761010080835404028352916020019161098e565b820191906000526020600020905b81548152906001019060200180831161097157829003601f168201915b50505050509050600061099f611425565b905060008151036109b45781925050506109f7565b6000825111156109e95780826040516020016109d1929190612667565b604051602081830303815290604052925050506109f7565b6109f28461143c565b925050505b919050565b60085481565b6000610a0c611119565b60006008549050610a1d84826114a4565b610a2781846114c2565b60086000815480929190610a3a906126ba565b91905055508091505092915050565b6000600560008473ffffffffffffffffffffffffffffffffffffffff1673ffffffffffffffffffffffffffffffffffffffff16815260200190815260200160002060008373ffffffffffffffffffffffffffffffffffffffff1673ffffffffffffffffffffffffffffffffffffffff16815260200190815260200160002060009054906101000a900460ff16905092915050565b610ae5611119565b600073ffffffffffffffffffffffffffffffffffffffff168173ffffffffffffffffffffffffffffffffffffffff1603610b54576040517f08c379a0000000000000000000000000000000000000000000000000000000008152600401610b4b90612774565b60405180910390fd5b610b5d81611197565b50565b60007f80ac58cd000000000000000000000000000000000000000000000000000000007bffffffffffffffffffffffffffffffffffffffffffffffffffffffff1916827bffffffffffffffffffffffffffffffffffffffffffffffffffffffff19161480610c2b57507f5b5e139f000000000000000000000000000000000000000000000000000000007bffffffffffffffffffffffffffffffffffffffffffffffffffffffff1916827bffffffffffffffffffffffffffffffffffffffffffffffffffffffff1916145b80610c3b5750610c3a82611566565b5b9050919050565b610c4b816115d0565b610c8a576040517f08c379a0000000000000000000000000000000000000000000000000000000008152600401610c8190612579565b60405180910390fd5b50565b600033905090565b816004600083815260200190815260200160002060006101000a81548173ffffffffffffffffffffffffffffffffffffffff021916908373ffffffffffffffffffffffffffffffffffffffff160217905550808273ffffffffffffffffffffffffffffffffffffffff16610d0883610665565b73ffffffffffffffffffffffffffffffffffffffff167f8c5be1e5ebec7d5bd14f71427d1e84f3dd0314c0f7b2291e5b200ac8c7c3b92560405160405180910390a45050565b600080610d5a83610665565b90508073ffffffffffffffffffffffffffffffffffffffff168473ffffffffffffffffffffffffffffffffffffffff161480610d9c5750610d9b8185610a49565b5b80610dda57508373ffffffffffffffffffffffffffffffffffffffff16610dc284610488565b73ffffffffffffffffffffffffffffffffffffffff16145b91505092915050565b8273ffffffffffffffffffffffffffffffffffffffff16610e0382610665565b73ffffffffffffffffffffffffffffffffffffffff1614610e59576040517f08c379a0000000000000000000000000000000000000000000000000000000008152600401610e5090612806565b60405180910390fd5b600073ffffffffffffffffffffffffffffffffffffffff168273ffffffffffffffffffffffffffffffffffffffff1603610ec8576040517f08c379a0000000000000000000000000000000000000000000000000000000008152600401610ebf90612898565b60405180910390fd5b610ed58383836001611611565b8273ffffffffffffffffffffffffffffffffffffffff16610ef582610665565b73ffffffffffffffffffffffffffffffffffffffff1614610f4b576040517f08c379a0000000000000000000000000000000000000000000000000000000008152600401610f4290612806565b60405180910390fd5b6004600082815260200190815260200160002060006101000a81549073ffffffffffffffffffffffffffffffffffffffff02191690556001600360008573ffffffffffffffffffffffffffffffffffffffff1673ffffffffffffffffffffffffffffffffffffffff168152602001908152602001600020600082825403925050819055506001600360008473ffffffffffffffffffffffffffffffffffffffff1673ffffffffffffffffffffffffffffffffffffffff16815260200190815260200160002060008282540192505081905550816002600083815260200190815260200160002060006101000a81548173ffffffffffffffffffffffffffffffffffffffff021916908373ffffffffffffffffffffffffffffffffffffffff160217905550808273ffffffffffffffffffffffffffffffffffffffff168473ffffffffffffffffffffffffffffffffffffffff167fddf252ad1be2c89b69c2b068fc378daa952ba7f163c4a11628f55a4df523b3ef60405160405180910390a46110d78383836001611617565b505050565b60006002600083815260200190815260200160002060009054906101000a900473ffffffffffffffffffffffffffffffffffffffff169050919050565b611121610c8d565b73ffffffffffffffffffffffffffffffffffffffff1661113f6107b6565b73ffffffffffffffffffffffffffffffffffffffff1614611195576040517f08c379a000000000000000000000000000000000000000000000000000000000815260040161118c90612904565b60405180910390fd5b565b6000600760009054906101000a900473ffffffffffffffffffffffffffffffffffffffff16905081600760006101000a81548173ffffffffffffffffffffffffffffffffffffffff021916908373ffffffffffffffffffffffffffffffffffffffff1602179055508173ffffffffffffffffffffffffffffffffffffffff168173ffffffffffffffffffffffffffffffffffffffff167f8be0079c531659141344cd1fd0a4f28419497f9722a3daafe3b4186f6b6457e060405160405180910390a35050565b8173ffffffffffffffffffffffffffffffffffffffff168373ffffffffffffffffffffffffffffffffffffffff16036112cb576040517f08c379a00000000000000000000000000000000000000000000000000000000081526004016112c290612970565b60405180910390fd5b80600560008573ffffffffffffffffffffffffffffffffffffffff1673ffffffffffffffffffffffffffffffffffffffff16815260200190815260200160002060008473ffffffffffffffffffffffffffffffffffffffff1673ffffffffffffffffffffffffffffffffffffffff16815260200190815260200160002060006101000a81548160ff0219169083151502179055508173ffffffffffffffffffffffffffffffffffffffff168373ffffffffffffffffffffffffffffffffffffffff167f17307eab39ab6107e8899845ad3d59bd9653f200f220920489ca2b5937696c31836040516113bc9190611d14565b60405180910390a3505050565b6113d4848484610de3565b6113e08484848461161d565b61141f576040517f08c379a000000000000000000000000000000000000000000000000000000000815260040161141690612a02565b60405180910390fd5b50505050565b606060405180602001604052806000815250905090565b606061144782610c42565b6000611451611425565b90506000815111611471576040518060200160405280600081525061149c565b8061147b846117a4565b60405160200161148c929190612667565b6040516020818303038152906040525b915050919050565b6114be828260405180602001604052806000815250611872565b5050565b6114cb826115d0565b61150a576040517f08c379a000000000000000000000000000000000000000000000000000000000815260040161150190612a94565b60405180910390fd5b8060066000848152602001908152602001600020908161152a9190612c60565b507ff8e1a15aba9398e019f0b49df1a4fde98ee17ae345cb5f6b5e2c27f5033e8ce78260405161155a9190611f9b565b60405180910390a15050565b60007f01ffc9a7000000000000000000000000000000000000000000000000000000007bffffffffffffffffffffffffffffffffffffffffffffffffffffffff1916827bffffffffffffffffffffffffffffffffffffffffffffffffffffffff1916149050919050565b60008073ffffffffffffffffffffffffffffffffffffffff166115f2836110dc565b73ffffffffffffffffffffffffffffffffffffffff1614159050919050565b50505050565b50505050565b600061163e8473ffffffffffffffffffffffffffffffffffffffff166118cd565b15611797578373ffffffffffffffffffffffffffffffffffffffff1663150b7a02611667610c8d565b8786866040518563ffffffff1660e01b81526004016116899493929190612d87565b6020604051808303816000875af19250505080156116c557506040513d601f19601f820116820180604052508101906116c29190612de8565b60015b611747573d80600081146116f5576040519150601f19603f3d011682016040523d82523d6000602084013e6116fa565b606091505b50600081510361173f576040517f08c379a000000000000000000000000000000000000000000000000000000000815260040161173690612a02565b60405180910390fd5b805181602001fd5b63150b7a0260e01b7bffffffffffffffffffffffffffffffffffffffffffffffffffffffff1916817bffffffffffffffffffffffffffffffffffffffffffffffffffffffff19161491505061179c565b600190505b949350505050565b6060600060016117b3846118f0565b01905060008167ffffffffffffffff8111156117d2576117d161202c565b5b6040519080825280601f01601f1916602001820160405280156118045781602001600182028036833780820191505090505b509050600082602001820190505b600115611867578080600190039150507f3031323334353637383961626364656600000000000000000000000000000000600a86061a8153600a858161185b5761185a612e15565b5b04945060008503611812575b819350505050919050565b61187c8383611a43565b611889600084848461161d565b6118c8576040517f08c379a00000000000000000000000000000000000000000000000000000000081526004016118bf90612a02565b60405180910390fd5b505050565b6000808273ffffffffffffffffffffffffffffffffffffffff163b119050919050565b600080600090507a184f03e93ff9f4daa797ed6e38ed64bf6a1f010000000000000000831061194e577a184f03e93ff9f4daa797ed6e38ed64bf6a1f010000000000000000838161194457611943612e15565b5b0492506040810190505b6d04ee2d6d415b85acef8100000000831061198b576d04ee2d6d415b85acef8100000000838161198157611980612e15565b5b0492506020810190505b662386f26fc1000083106119ba57662386f26fc1000083816119b0576119af612e15565b5b0492506010810190505b6305f5e10083106119e3576305f5e10083816119d9576119d8612e15565b5b0492506008810190505b6127108310611a085761271083816119fe576119fd612e15565b5b0492506004810190505b60648310611a2b5760648381611a2157611a20612e15565b5b0492506002810190505b600a8310611a3a576001810190505b80915050919050565b600073ffffffffffffffffffffffffffffffffffffffff168273ffffffffffffffffffffffffffffffffffffffff1603611ab2576040517f08c379a0000000000000000000000000000000000000000000000000000000008152600401611aa990612e90565b60405180910390fd5b611abb816115d0565b15611afb576040517f08c379a0000000000000000000000000000000000000000000000000000000008152600401611af290612efc565b60405180910390fd5b611b09600083836001611611565b611b12816115d0565b15611b52576040517f08c379a0000000000000000000000000000000000000000000000000000000008152600401611b4990612efc565b60405180910390fd5b6001600360008473ffffffffffffffffffffffffffffffffffffffff1673ffffffffffffffffffffffffffffffffffffffff16815260200190815260200160002060008282540192505081905550816002600083815260200190815260200160002060006101000a81548173ffffffffffffffffffffffffffffffffffffffff021916908373ffffffffffffffffffffffffffffffffffffffff160217905550808273ffffffffffffffffffffffffffffffffffffffff16600073ffffffffffffffffffffffffffffffffffffffff167fddf252ad1be2c89b69c2b068fc378daa952ba7f163c4a11628f55a4df523b3ef60405160405180910390a4611c5c600083836001611617565b5050565b6000604051905090565b600080fd5b600080fd5b60007fffffffff0000000000000000000000000000000000000000000000000000000082169050919050565b611ca981611c74565b8114611cb457600080fd5b50565b600081359050611cc681611ca0565b92915050565b600060208284031215611ce257611ce1611c6a565b5b6000611cf084828501611cb7565b91505092915050565b60008115159050919050565b611d0e81611cf9565b82525050565b6000602082019050611d296000830184611d05565b92915050565b600081519050919050565b600082825260208201905092915050565b60005b83811015611d69578082015181840152602081019050611d4e565b60008484015250505050565b6000601f19601f8301169050919050565b6000611d9182611d2f565b611d9b8185611d3a565b9350611dab818560208601611d4b565b611db481611d75565b840191505092915050565b60006020820190508181036000830152611dd98184611d86565b905092915050565b6000819050919050565b611df481611de1565b8114611dff57600080fd5b50565b600081359050611e1181611deb565b92915050565b600060208284031215611e2d57611e2c611c6a565b5b6000611e3b84828501611e02565b91505092915050565b600073ffffffffffffffffffffffffffffffffffffffff82169050919050565b6000611e6f82611e44565b9050919050565b611e7f81611e64565b82525050565b6000602082019050611e9a6000830184611e76565b92915050565b611ea981611e64565b8114611eb457600080fd5b50565b600081359050611ec681611ea0565b92915050565b60008060408385031215611ee357611ee2611c6a565b5b6000611ef185828601611eb7565b9250506020611f0285828601611e02565b9150509250929050565b600080600060608486031215611f2557611f24611c6a565b5b6000611f3386828701611eb7565b9350506020611f4486828701611eb7565b9250506040611f5586828701611e02565b9150509250925092565b600060208284031215611f7557611f74611c6a565b5b6000611f8384828501611eb7565b91505092915050565b611f9581611de1565b82525050565b6000602082019050611fb06000830184611f8c565b92915050565b611fbf81611cf9565b8114611fca57600080fd5b50565b600081359050611fdc81611fb6565b92915050565b60008060408385031215611ff957611ff8611c6a565b5b600061200785828601611eb7565b925050602061201885828601611fcd565b9150509250929050565b600080fd5b600080fd5b7f4e487b7100000000000000000000000000000000000000000000000000000000600052604160045260246000fd5b61206482611d75565b810181811067ffffffffffffffff821117156120835761208261202c565b5b80604052505050565b6000612096611c60565b90506120a2828261205b565b919050565b600067ffffffffffffffff8211156120c2576120c161202c565b5b6120cb82611d75565b9050602081019050919050565b82818337600083830152505050565b60006120fa6120f5846120a7565b61208c565b90508281526020810184848401111561211657612115612027565b5b6121218482856120d8565b509392505050565b600082601f83011261213e5761213d612022565b5b813561214e8482602086016120e7565b91505092915050565b6000806000806080858703121561217157612170611c6a565b5b600061217f87828801611eb7565b945050602061219087828801611eb7565b93505060406121a187828801611e02565b925050606085013567ffffffffffffffff8111156121c2576121c1611c6f565b5b6121ce87828801612129565b91505092959194509250565b600067ffffffffffffffff8211156121f5576121f461202c565b5b6121fe82611d75565b9050602081019050919050565b600061221e612219846121da565b61208c565b90508281526020810184848401111561223a57612239612027565b5b6122458482856120d8565b509392505050565b600082601f83011261226257612261612022565b5b813561227284826020860161220b565b91505092915050565b6000806040838503121561229257612291611c6a565b5b60006122a085828601611eb7565b925050602083013567ffffffffffffffff8111156122c1576122c0611c6f565b5b6122cd8582860161224d565b9150509250929050565b600080604083850312156122ee576122ed611c6a565b5b60006122fc85828601611eb7565b925050602061230d85828601611eb7565b9150509250929050565b7f4e487b7100000000000000000000000000000000000000000000000000000000600052602260045260246000fd5b6000600282049050600182168061235e57607f821691505b60208210810361237157612370612317565b5b50919050565b7f4552433732313a20617070726f76616c20746f2063757272656e74206f776e6560008201527f7200000000000000000000000000000000000000000000000000000000000000602082015250565b60006123d3602183611d3a565b91506123de82612377565b604082019050919050565b60006020820190508181036000830152612402816123c6565b9050919050565b7f4552433732313a20617070726f76652063616c6c6572206973206e6f7420746f60008201527f6b656e206f776e6572206f7220617070726f76656420666f7220616c6c000000602082015250565b6000612465603d83611d3a565b915061247082612409565b604082019050919050565b6000602082019050818103600083015261249481612458565b9050919050565b7f4552433732313a2063616c6c6572206973206e6f7420746f6b656e206f776e6560008201527f72206f7220617070726f76656400000000000000000000000000000000000000602082015250565b60006124f7602d83611d3a565b91506125028261249b565b604082019050919050565b60006020820190508181036000830152612526816124ea565b9050919050565b7f4552433732313a20696e76616c696420746f6b656e2049440000000000000000600082015250565b6000612563601883611d3a565b915061256e8261252d565b602082019050919050565b6000602082019050818103600083015261259281612556565b9050919050565b7f4552433732313a2061646472657373207a65726f206973206e6f74206120766160008201527f6c6964206f776e65720000000000000000000000000000000000000000000000602082015250565b60006125f5602983611d3a565b915061260082612599565b604082019050919050565b60006020820190508181036000830152612624816125e8565b9050919050565b600081905092915050565b600061264182611d2f565b61264b818561262b565b935061265b818560208601611d4b565b80840191505092915050565b60006126738285612636565b915061267f8284612636565b91508190509392505050565b7f4e487b7100000000000000000000000000000000000000000000000000000000600052601160045260246000fd5b60006126c582611de1565b91507fffffffffffffffffffffffffffffffffffffffffffffffffffffffffffffffff82036126f7576126f661268b565b5b600182019050919050565b7f4f776e61626c653a206e6577206f776e657220697320746865207a65726f206160008201527f6464726573730000000000000000000000000000000000000000000000000000602082015250565b600061275e602683611d3a565b915061276982612702565b604082019050919050565b6000602082019050818103600083015261278d81612751565b9050919050565b7f4552433732313a207472616e736665722066726f6d20696e636f72726563742060008201527f6f776e6572000000000000000000000000000000000000000000000000000000602082015250565b60006127f0602583611d3a565b91506127fb82612794565b604082019050919050565b6000602082019050818103600083015261281f816127e3565b9050919050565b7f4552433732313a207472616e7366657220746f20746865207a65726f2061646460008201527f7265737300000000000000000000000000000000000000000000000000000000602082015250565b6000612882602483611d3a565b915061288d82612826565b604082019050919050565b600060208201905081810360008301526128b181612875565b9050919050565b7f4f776e61626c653a2063616c6c6572206973206e6f7420746865206f776e6572600082015250565b60006128ee602083611d3a565b91506128f9826128b8565b602082019050919050565b6000602082019050818103600083015261291d816128e1565b9050919050565b7f4552433732313a20617070726f766520746f2063616c6c657200000000000000600082015250565b600061295a601983611d3a565b915061296582612924565b602082019050919050565b600060208201905081810360008301526129898161294d565b9050919050565b7f4552433732313a207472616e7366657220746f206e6f6e20455243373231526560008201527f63656976657220696d706c656d656e7465720000000000000000000000000000602082015250565b60006129ec603283611d3a565b91506129f782612990565b604082019050919050565b60006020820190508181036000830152612a1b816129df565b9050919050565b7f45524337323155524953746f726167653a2055524920736574206f66206e6f6e60008201527f6578697374656e7420746f6b656e000000000000000000000000000000000000602082015250565b6000612a7e602e83611d3a565b9150612a8982612a22565b604082019050919050565b60006020820190508181036000830152612aad81612a71565b9050919050565b60008190508160005260206000209050919050565b60006020601f8301049050919050565b600082821b905092915050565b600060088302612b167fffffffffffffffffffffffffffffffffffffffffffffffffffffffffffffffff82612ad9565b612b208683612ad9565b95508019841693508086168417925050509392505050565b6000819050919050565b6000612b5d612b58612b5384611de1565b612b38565b611de1565b9050919050565b6000819050919050565b612b7783612b42565b612b8b612b8382612b64565b848454612ae6565b825550505050565b600090565b612ba0612b93565b612bab818484612b6e565b505050565b5b81811015612bcf57612bc4600082612b98565b600181019050612bb1565b5050565b601f821115612c1457612be581612ab4565b612bee84612ac9565b81016020851015612bfd578190505b612c11612c0985612ac9565b830182612bb0565b50505b505050565b600082821c905092915050565b6000612c3760001984600802612c19565b1980831691505092915050565b6000612c508383612c26565b9150826002028217905092915050565b612c6982611d2f565b67ffffffffffffffff811115612c8257612c8161202c565b5b612c8c8254612346565b612c97828285612bd3565b600060209050601f831160018114612cca5760008415612cb8578287015190505b612cc28582612c44565b865550612d2a565b601f198416612cd886612ab4565b60005b82811015612d0057848901518255600182019150602085019450602081019050612cdb565b86831015612d1d5784890151612d19601f891682612c26565b8355505b6001600288020188555050505b505050505050565b600081519050919050565b600082825260208201905092915050565b6000612d5982612d32565b612d638185612d3d565b9350612d73818560208601611d4b565b612d7c81611d75565b840191505092915050565b6000608082019050612d9c6000830187611e76565b612da96020830186611e76565b612db66040830185611f8c565b8181036060830152612dc88184612d4e565b905095945050505050565b600081519050612de281611ca0565b92915050565b600060208284031215612dfe57612dfd611c6a565b5b6000612e0c84828501612dd3565b91505092915050565b7f4e487b7100000000000000000000000000000000000000000000000000000000600052601260045260246000fd5b7f4552433732313a206d696e7420746f20746865207a65726f2061646472657373600082015250565b6000612e7a602083611d3a565b9150612e8582612e44565b602082019050919050565b60006020820190508181036000830152612ea981612e6d565b9050919050565b7f4552433732313a20746f6b656e20616c7265616479206d696e74656400000000600082015250565b6000612ee6601c83611d3a565b9150612ef182612eb0565b602082019050919050565b60006020820190508181036000830152612f1581612ed9565b905091905056fea264697066735822122093e894b996660966905d25e8b6ca4c017b5e6bc0c66242fad2879f427333928064736f6c63430008130033",
  "linkReferences": {},
  "deployedLinkReferences": {}
}