{
  "_format": "hh-sol-artifact-1",
  "contractName": "WalletPoolDistributor",
  "sourceName": "contracts/TokenDistributor.sol",
  "abi": [
    {
      "inputs": [
        {
          "internalType": "address",
          "name": "tokenAddress",
          "type": "address"
        }
      ],
      "stateMutability": "nonpayable",
      "type": "constructor"
    },
    {
      "anonymous": false,
      "inputs": [
        {
          "indexed": true,
          "internalType": "address",
          "name": "previousOwner",
          "type": "address"
        },
        {
          "indexed": true,
          "internalType": "address",
          "name": "newOwner",
          "type": "address"
        }
      ],
      "name": "OwnershipTransferred",
      "type": "event"
    },
    {
      "anonymous": false,
      "inputs": [
        {
          "indexed": true,
          "internalType": "address",
          "name": "to",
          "type": "address"
        },
        {
          "indexed": false,
          "internalType": "uint256",
          "name": "amount",
          "type": "uint256"
        }
      ],
      "name": "RewardSent",
      "type": "event"
    },
    {
      "inputs": [],
      "name": "owner",
      "outputs": [
        {
          "internalType": "address",
          "name": "",
          "type": "address"
        }
      ],
      "stateMutability": "view",
      "type": "function"
    },
    {
      "inputs": [],
      "name": "renounceOwnership",
      "outputs": [],
      "stateMutability": "nonpayable",
      "type": "function"
    },
    {
      "inputs": [
        {
          "internalType": "address",
          "name": "to",
          "type": "address"
        },
        {
          "internalType": "uint256",
          "name": "amount",
          "type": "uint256"
        }
      ],
      "name": "sendReward",
      "outputs": [],
      "stateMutability": "nonpayable",
      "type": "function"
    },
    {
      "inputs": [],
      "name": "token",
      "outputs": [
        {
          "internalType": "contract IERC20",
          "name": "",
          "type": "address"
        }
      ],
      "stateMutability": "view",
      "type": "function"
    },
    {
      "inputs": [
        {
          "internalType": "address",
          "name": "newOwner",
          "type": "address"
        }
      ],
      "name": "transferOwnership",
      "outputs": [],
      "stateMutability": "nonpayable",
      "type": "function"
    }
  ],
  "bytecode": "0x60a06040523480156200001157600080fd5b5060405162000d0b38038062000d0b83398181016040528101906200003791906200023a565b620000576200004b6200010460201b60201c565b6200010c60201b60201c565b600073ffffffffffffffffffffffffffffffffffffffff168173ffffffffffffffffffffffffffffffffffffffff1603620000c9576040517f08c379a0000000000000000000000000000000000000000000000000000000008152600401620000c090620002cd565b60405180910390fd5b8073ffffffffffffffffffffffffffffffffffffffff1660808173ffffffffffffffffffffffffffffffffffffffff168152505050620002ef565b600033905090565b60008060009054906101000a900473ffffffffffffffffffffffffffffffffffffffff169050816000806101000a81548173ffffffffffffffffffffffffffffffffffffffff021916908373ffffffffffffffffffffffffffffffffffffffff1602179055508173ffffffffffffffffffffffffffffffffffffffff168173ffffffffffffffffffffffffffffffffffffffff167f8be0079c531659141344cd1fd0a4f28419497f9722a3daafe3b4186f6b6457e060405160405180910390a35050565b600080fd5b600073ffffffffffffffffffffffffffffffffffffffff82169050919050565b60006200020282620001d5565b9050919050565b6200021481620001f5565b81146200022057600080fd5b50565b600081519050620002348162000209565b92915050565b600060208284031215620002535762000252620001d0565b5b6000620002638482850162000223565b91505092915050565b600082825260208201905092915050565b7f746f6b656e3d3d30000000000000000000000000000000000000000000000000600082015250565b6000620002b56008836200026c565b9150620002c2826200027d565b602082019050919050565b60006020820190508181036000830152620002e881620002a6565b9050919050565b6080516109f96200031260003960008181610198015261039401526109f96000f3fe608060405234801561001057600080fd5b50600436106100575760003560e01c806307420a411461005c578063715018a6146100785780638da5cb5b14610082578063f2fde38b146100a0578063fc0c546a146100bc575b600080fd5b61007660048036038101906100719190610599565b6100da565b005b6100806102d2565b005b61008a6102e6565b60405161009791906105e8565b60405180910390f35b6100ba60048036038101906100b59190610603565b61030f565b005b6100c4610392565b6040516100d1919061068f565b60405180910390f35b6100e26103b6565b600073ffffffffffffffffffffffffffffffffffffffff168273ffffffffffffffffffffffffffffffffffffffff1603610151576040517f08c379a000000000000000000000000000000000000000000000000000000000815260040161014890610707565b60405180910390fd5b60008111610194576040517f08c379a000000000000000000000000000000000000000000000000000000000815260040161018b90610773565b60405180910390fd5b60007f000000000000000000000000000000000000000000000000000000000000000073ffffffffffffffffffffffffffffffffffffffff166323b872dd6101da6102e6565b85856040518463ffffffff1660e01b81526004016101fa939291906107a2565b6020604051808303816000875af1158015610219573d6000803e3d6000fd5b505050506040513d601f19601f8201168201806040525081019061023d9190610811565b90508061027f576040517f08c379a00000000000000000000000000000000000000000000000000000000081526004016102769061088a565b60405180910390fd5b8273ffffffffffffffffffffffffffffffffffffffff167f6177f4110771217c72937d51f3a73915f2c714a6b98507e17eea7a186136a24a836040516102c591906108aa565b60405180910390a2505050565b6102da6103b6565b6102e46000610434565b565b60008060009054906101000a900473ffffffffffffffffffffffffffffffffffffffff16905090565b6103176103b6565b600073ffffffffffffffffffffffffffffffffffffffff168173ffffffffffffffffffffffffffffffffffffffff1603610386576040517f08c379a000000000000000000000000000000000000000000000000000000000815260040161037d90610937565b60405180910390fd5b61038f81610434565b50565b7f000000000000000000000000000000000000000000000000000000000000000081565b6103be6104f8565b73ffffffffffffffffffffffffffffffffffffffff166103dc6102e6565b73ffffffffffffffffffffffffffffffffffffffff1614610432576040517f08c379a0000000000000000000000000000000000000000000000000000000008152600401610429906109a3565b60405180910390fd5b565b60008060009054906101000a900473ffffffffffffffffffffffffffffffffffffffff169050816000806101000a81548173ffffffffffffffffffffffffffffffffffffffff021916908373ffffffffffffffffffffffffffffffffffffffff1602179055508173ffffffffffffffffffffffffffffffffffffffff168173ffffffffffffffffffffffffffffffffffffffff167f8be0079c531659141344cd1fd0a4f28419497f9722a3daafe3b4186f6b6457e060405160405180910390a35050565b600033905090565b600080fd5b600073ffffffffffffffffffffffffffffffffffffffff82169050919050565b600061053082610505565b9050919050565b61054081610525565b811461054b57600080fd5b50565b60008135905061055d81610537565b92915050565b6000819050919050565b61057681610563565b811461058157600080fd5b50565b6000813590506105938161056d565b92915050565b600080604083850312156105b0576105af610500565b5b60006105be8582860161054e565b92505060206105cf85828601610584565b9150509250929050565b6105e281610525565b82525050565b60006020820190506105fd60008301846105d9565b92915050565b60006020828403121561061957610618610500565b5b60006106278482850161054e565b91505092915050565b6000819050919050565b600061065561065061064b84610505565b610630565b610505565b9050919050565b60006106678261063a565b9050919050565b60006106798261065c565b9050919050565b6106898161066e565b82525050565b60006020820190506106a46000830184610680565b92915050565b600082825260208201905092915050565b7f696e76616c696420746f00000000000000000000000000000000000000000000600082015250565b60006106f1600a836106aa565b91506106fc826106bb565b602082019050919050565b60006020820190508181036000830152610720816106e4565b9050919050565b7f616d6f756e743e30000000000000000000000000000000000000000000000000600082015250565b600061075d6008836106aa565b915061076882610727565b602082019050919050565b6000602082019050818103600083015261078c81610750565b9050919050565b61079c81610563565b82525050565b60006060820190506107b760008301866105d9565b6107c460208301856105d9565b6107d16040830184610793565b949350505050565b60008115159050919050565b6107ee816107d9565b81146107f957600080fd5b50565b60008151905061080b816107e5565b92915050565b60006020828403121561082757610826610500565b5b6000610835848285016107fc565b91505092915050565b7f7472616e73666572206661696c65640000000000000000000000000000000000600082015250565b6000610874600f836106aa565b915061087f8261083e565b602082019050919050565b600060208201905081810360008301526108a381610867565b9050919050565b60006020820190506108bf6000830184610793565b92915050565b7f4f776e61626c653a206e6577206f776e657220697320746865207a65726f206160008201527f6464726573730000000000000000000000000000000000000000000000000000602082015250565b60006109216026836106aa565b915061092c826108c5565b604082019050919050565b6000602082019050818103600083015261095081610914565b9050919050565b7f4f776e61626c653a2063616c6c6572206973206e6f7420746865206f776e6572600082015250565b600061098d6020836106aa565b915061099882610957565b602082019050919050565b600060208201905081810360008301526109bc81610980565b905091905056fea26469706673582212207d38f7c4656cd5ae777853c1956179c1abf8769fe7bf4b3ed77de0b39a463f9864736f6c63430008130033",
  "linkReferences": {},
  "deployedLinkReferences": {}
}